:100000000C94DA020C941E030C941E030C941E0331
:100010000C941E030C941E030C941E030C941E03DC
:100020000C941E030C941E030C94D5210C94A7224F
:100030000C947B180C941E030C941E030C941E034A
:100040000C941E030C941E030C941E030C941E03AC
:100050000C941E030C94E2180C941E030C941E03C3
:100060000C941E030C941E030C941E030C941E038C
:100070000C941E030C941E030C941E030C941E037C
:100080000C941E030C941E030C941E030C941E036C
:100090000C941E030C941E030C941E030C941E035C
:1000A0000C941E030C941E030C941E03EA04F0042B
:1000B000F404F704FB04FF04030507050C05100511
:1000C000140518051B051F05230527052B053005FD
:1000D000A20EA20EDC0EDC0E1B0F3D0F7110711074
:1000E000480F7110EF0FEF0F6510711071106C1049
:1000F000FC0FFC0FFC0FFC0FFC0FFC0FFC0FFC0FA8
:10010000FC0FFC0FFC0FFC0FFC0FFC0FFC0FFC0F97
:100110000E101E1025102C10361001110111141193
:1001200014110A11141114111411011101111011DB
:100130001411141110110C232E2319242E23192409
:10014000702393231924E823FB2302E20001E20138
:100150002B74C8022B0029001E001F002000210064
:1001600022000000230024002500260027000400B0
:100170002B001400070015001A00050000000D00F8
:1001800009001800130033003100020004001600BB
:100190000B0017000A0000001C00110008001200EC
:1001A0000C003400E1001D001B00100006001900C7
:1001B0002A000E000F00360037003800E500E0008E
:1001C0000130E300E2000230030028002C00500060
:1001D000510052004F0004580100010001000100CD
:1001E0000100010001000100010001000100010007
:1001F0000100010014001A0008001500170001009A
:100200001C0018000C001200130031000100040053
:100210001600070009000A0001000B000D000E0087
:100220000F003300340001001D001B000600190000
:1002300005000100110010003600370038000100F1
:1002400001000100010001000100010001000100A6
:100250000100010001000100010001000100010096
:100260000100010001000100010001000100010086
:100270000100010001002E022E002F023002310287
:10028000010001000257010001000100010001000E
:1002900024022D002602270235000100010001572B
:1002A00000570100010001000100360237022F0053
:1002B00030003502010001000100010001000100D1
:1002C0000100010041004200430044000100010020
:1002D00001000100010001000100010035003A00A9
:1002E0003B003C003D003E0001003F00400041005B
:1002F0004200430044000401010001001A01010012
:100300004C00010001000100010001000100450056
:10031000010004011601010001002D02010001008D
:100320004A004E004B004D004900010001001B0136
:100330000100060119010100AC00AB00AA00A900F0
:10034000AE0001004C05010001001D011C0101006F
:100350000100010001000100010001000100010095
:100360000100010001000100010001000100010085
:10037000540055005600010001000100F400F00097
:10038000F5000100010001005F00600061005700FE
:10039000010001000100F200F100F3000100010082
:1003A00001005C005D005E005700010001000100DB
:1003B00001000100650001000100010059005A0020
:1003C0005B00580001000100010001000100010074
:1003D00003000100010062006200630001000100EF
:1003E0000100010001000100010001000100010005
:1003F000010001000100135C0A5C01000100010022
:1004000001000100010001000100010001000100E4
:1004100001000100010001000100010001000100D4
:1004200001000100000001000100010001000100C5
:1004300001000100010001000100010001000100B4
:1004400001000100010001000100010001000100A4
:100450000100010001000100010001000100010094
:100460000100120341007400720065007500730002
:100470003600320000000E03500072006F0066006C
:10048000650074000000040309040902540003011C
:1004900000A0FA0904000001030101000921110173
:1004A00000012240000705810308000A0904010039
:1004B0000103010200092111010001224D0007057D
:1004C000820308000A090402000103000000092158
:1004D000110100012236000705830308000A1201FA
:1004E000100100000008EDFE626001000102000141
:1004F00005010980A10185021601002603001A8169
:10050000002A8300751095018100C0050C0901A126
:10051000018503160100269C021A01002A9C02751F
:100520001095018100C005010902A1010901A10086
:100530000509190129051500250195057501810297
:100540009501750381010501093009311581257F68
:1005500095027508810609381581257F9501750872
:100560008106050C0A38021581257F9501750881E1
:1005700006C0C005010906A101050719E029E71514
:100580000025019508750181029501750881010515
:1005900008190129059505750191029501750391C9
:1005A000010507190029FF150026FF0095067508AB
:1005B0008100C00011241FBECFEFDAE0DEBFCDBF47
:1005C00004B603FE24C080915D0290915E02A0916A
:1005D0005F02B09160028730904BA740B04BB9F4F6
:1005E00010925D0210925E0210925F021092600201
:1005F00014BE84B7877F84BF88E10FB6F8948093D8
:100600006000109260000FBEE0E0F8E3099511E091
:10061000A0E0B1E0EEEAFBE402C005900D92A23743
:10062000B107D9F712E0A2E7B1E001C01D92AD35E4
:10063000B107E1F70E94091F0C94D5250C94000026
:10064000FF920F931F93CF93DF93CDB7DEB7FE01D9
:100650003896F1908F018F2D0E94300D8F2D0E94C2
:10066000030E2FEF80E792E0215080409040E1F7A9
:1006700000C0000098012E5F3F4FF801F080FF207E
:1006800011F08901E8CFDF91CF911F910F91FF9079
:100690000895FC0120812130F9F0223081F581EEAE
:1006A0000E94300D1F921F928EE18F930E942003B3
:1006B00081EE0E94030E1F921F921F928EE28F9373
:1006C0008F930E942003EDB7FEB738960FB6F894CB
:1006D000FEBF0FBEEDBF08951F921F921F928EE2C4
:1006E0008F931F928F938F930E9420038DB79EB795
:1006F00007960FB6F8949EBF0FBE8DBF08950C9459
:10070000E80AFC0120812130D9F0223039F581EE50
:100710000E94300D1F921F928EE18F930E94200342
:1007200081EE0E94030E1F921F928EE28F930E9411
:1007300020030F900F900F900F900F900F9008953F
:100740001F921F921F928EE28F938F930E9420031D
:100750000F900F900F900F900F9008950C94E80A4F
:10076000CF93FC0120812130A9F1223009F04BC048
:1007700081EE0E94300D1F921F921F92CCE2CF9308
:100780001F9287E28F9386E28F930E94200381EE6F
:100790000E94030E1F921F928EE28F930E942003ED
:1007A00081EE0E94300D1F921F921F9280E38F9363
:1007B0001F928FE28F931F92CF9387E38F930E94B4
:1007C00020038DB79EB743960FB6F8949EBF0FBE19
:1007D0008DBF15C01F921F928EE28F930E9420033F
:1007E00081EE0E94300D1F921F9287E38F930E942B
:1007F00020030F900F900F900F900F900F9081EEAD
:10080000CF910C94030ECF910C94E80ACF93DF9311
:10081000EC010E942718BE0180E090E0DF91CF91AB
:100820000C94F414613039F4FC018281882331F096
:100830008DE491E0089580E090E008958AE491E0ED
:100840000895CF93FB0182309105E1F028F40097E1
:1008500059F0019779F035C083309105E9F004979C
:1008600081F5C28184E01AC0C281CC2359F181E0B4
:1008700090E005C0C281CC2329F182E090E00E9483
:10088000060415C0C28182E0CC2319F00E944D15E8
:100890000EC00E94681516C0C28183E0CC2349F0C7
:1008A0000E944D1545E064E083E00E94DB05C0E056
:1008B00009C00E94681545E064E083E00E94DB0502
:1008C00001C0C1E08C2FCF9108950895089581E073
:1008D00008950C9421040E94EF102FEF84E39CE014
:1008E000215080409040E1F700C0000087E797E783
:1008F00090930108809300080C940819FF920F93BD
:100900001F93CF93DF938C01FC01C081D181809133
:10091000B201811113C08281882349F0CE010E9467
:100920003316F82E682FCE010E94D91504C0CE01CF
:100930000E940716F82EBE018F2D04C0CE010E9422
:100940003316BE010E943706EC01B8010E9469040B
:10095000882309F429C1B801CE010E94170B88230E
:1009600009F422C1B801CE010E945A08882309F473
:100970001BC1B801CE010E94BD09882309F414C12E
:10098000C531FCE5DF0708F0A4C0C2308CE5D8070C
:1009900008F478C0F8018281882309F47FC00E949E
:1009A0001418811102C00E94FA170E942C1890E0BE
:1009B00090934F0280934E02FE01E350FC45E231DA
:1009C000F10520F4EA5AFF4F0C94852580914E02E0
:1009D000816003C080914E02826080934E024BC0C2
:1009E00080914E028460F9CF80914E0213C08091B5
:1009F0004E028061F2CF80914E028062EECF8091F4
:100A00004E028064EACF80914E028068E6CF8091EA
:100A10004E0284608860E1CF80914E028E7FDDCFF0
:100A200080914E028D7FD9CF80914E028B7FD5CFA2
:100A300080914E0213C080914E028F7ECECF809166
:100A40004E028F7DCACF80914E028F7BC6CF8091A0
:100A50004E028F77C2CF80914E028B7F877FBDCFB2
:100A600090914E0297FB882780F921E0822780FB36
:100A700097F990934E0280914E020E9430180E9486
:100A8000EF1092C0C115ECE5DE0781F0C130DC4506
:100A9000A9F081E08093760180937701C801DF910E
:100AA000CF911F910F91FF900C946704F801828100
:100AB000882309F479C00E946B0476C0F801828112
:100AC000882309F471C080913102816080933102E2
:100AD0006BC0C73C8CE5D80739F5F80182818823C3
:100AE00061F0109277010E94AD1890937501809388
:100AF000740180E20E94520E57C0809177018111EB
:100B00000FC080917401909175010E94B918883CC2
:100B1000910530F487E20E94300D87E20E94030EB7
:100B200080E20E94590E40C0C83CECE5DE0738F573
:100B3000C63CDC4509F0ADCFF8018281882351F035
:100B4000109276010E94AD18909373018093720108
:100B500082E0D0CF8091760181110FC08091720127
:100B6000909173010E94B918883C910530F486E297
:100B70000E94300D86E20E94030E82E0D2CFCA3C72
:100B80008CE5D80731F4F8018281882369F080E090
:100B900009C0CB3CDC4509F07CCFF8018281882379
:100BA00019F082E00E949B1F80E0DF91CF911F919E
:100BB0000F91FF900895CF92DF92EF92FF920F93E3
:100BC0001F9301E010E020E030E06801790104C0EB
:100BD000CC0CDD1CEE1CFF1C8A95D2F7D701C60198
:100BE00004C0000F111F221F331F6A95D2F7802BFC
:100BF000912BA22BB32B0091180210911902209176
:100C00001A0230911B02082319232A233B230817B9
:100C100019072A073B0749F4842F1F910F91FF9072
:100C2000EF90DF90CF900C944D15842F1F910F9172
:100C3000FF90EF90DF90CF900C9468150C94A6086D
:100C40000E94B10B0C94A808282F882339F090E05B
:100C50002A3010F44D9608950697089587E290E0A3
:100C6000089508950C9431060C94320608959DE081
:100C7000799FF001112491E4899FE00DF11D112469
:100C8000E60FF11DEE0FFF1FEA5AFE4F859194917A
:100C90000895880F991F8A5A9E4FFC01859194915F
:100CA00008950E9437060E94DD07811520E492070F
:100CB000B0F5811540E3940708F0DBC0803E910554
:100CC000D8F4803C910508F069C0883A910578F421
:100CD000853A910508F065C08130910509F46CC131
:100CE00008F423C18430910508F066C11EC18D3B14
:100CF000910508F461C019C18F3F910509F048F4CE
:100D0000803F910508F0AFC0883E910508F454C1BA
:100D10000CC1811520E2920708F0A7C00895811543
:100D200044E59407D8F4811523E5920708F0DCC068
:100D3000811541E5940740F4811520E5920708F0FC
:100D4000A2C09F70906A0895811542E5940708F04B
:100D5000B6C0982F8827816F906A0895811526E57F
:100D6000920750F4811545E5940708F0D2C0982FFA
:100D70008827846F906A0895811528E5920708F402
:100D8000D4C0811549E5940708F4C8C09C013056C9
:100D90002115304208F0C9C09F71C5C0805C91091F
:100DA00065C0853A910509F4C3C0863A910509F4F6
:100DB000C2C083E890E40895883A910509F4BEC062
:100DC000893A910509F4BDC08A3A910509F4BCC07D
:100DD0008B3A910509F4BBC08C3A910509F4BAC06D
:100DE0008B3B910509F4B9C08C3B910509F4B8C05F
:100DF0008D3A910509F4B7C0803B910509F4B6C05E
:100E00008E3A910509F4B5C08F3A910509F4B4C042
:100E1000813B910509F4B3C0823B910509F4B2C04E
:100E2000833B910509F4B1C0843B910509F4B0C03E
:100E3000853B910509F4AFC0863B910509F4AEC02E
:100E4000873B910509F4ADC0883B910509F4ACC01E
:100E5000893B910509F4ABC08A3B910509F0AAC012
:100E60008AE296E40895906508959F700E9449066D
:100E700008959C01332793FF03C0C901986C08951E
:100E8000C901906C0895482F437021E030E002C002
:100E9000220F331F4A95E2F73C68AC0174E0569587
:100EA00047957A95E1F74370342B8F708695869538
:100EB00040E2849FC0011124822B932B0895282F98
:100EC0002695269540E2249F90011124AC014370A1
:100ED000552781E090E002C0880F991F4A95E2F7FC
:100EE000822B932B9C680895282F2695269540E207
:100EF000249F90011124AC014370552781E090E0BC
:100F000002C0880F991F4A95E2F7822B932B9A68AB
:100F100008958F719927982F882705C0982F8827C3
:100F2000806F906A08959062089580E090E008953F
:100F300081E890E4089582E890E4089582EE94E4D4
:100F4000089589EE94E408958AEE94E4089585EB7B
:100F500094E4089586EB94E4089583EB94E4089573
:100F600084EB94E4089587EB94E408958CEC94E486
:100F700008958DEC94E4089583E895E408958AE853
:100F800095E4089582E995E4089584E995E4089547
:100F900081E296E4089583E296E4089584E296E47B
:100FA000089585E296E4089586E296E4089587E23E
:100FB00096E4089580E094E408958238910549F11B
:100FC000B0F48133910509F459C048F48932910590
:100FD00009F44FC08A32910509F455C0089585334C
:100FE000910509F441C08933910599F00895833E34
:100FF000910531F138F4803E910591F0823E9105E2
:10100000A9F00895863E910501F1873E910539F1D9
:10101000089520914E0220FD3BC021FD39C0089566
:1010200080914E0280FF34C089E341C080914E021E
:1010300082FF32C080914E0284FF2CC080E037C016
:1010400080914E0282FD28C0F5CF80914E0283FF31
:1010500025C080914E0284FDF1CF87EE28C080919B
:101060004E0283FD1BC0F5CF80914E0285FF18C054
:1010700019C080914E0285FF15C012C080914E02AA
:1010800086FF12C013C080914E0286FF0FC00CC0B5
:1010900080EE0DC083EE0BC082EE09C086EE07C065
:1010A00085E305C089E203C081E301C08AE290E0E4
:1010B00008950895CF93DF93EC01FB0182818111A4
:1010C00002C081E040C080918501811125C0C531F9
:1010D000DC45B9F70E94590881E0809385010E94A0
:1010E000AD1890938401809383011092780110923F
:1010F0007A011092790110927C0110927B0110927A
:101100007E0110927D011092800110927F01109259
:1011100082011092810116C0809183019091840117
:101120000E94B918883E934060F680917801E82FBC
:10113000F0E0EE0FFF1FE758FE4FD183C0838F5FB3
:101140008093780180E0DF91CF9108950C9465043D
:101150000C94660485B7806885BF85B7806885BFB5
:10116000A7E4B1E021E030E08D91E82FE295EF7047
:10117000F0E041A18F70B90102C0660F771F8A9518
:10118000E2F7CB01962F9095492341A392A1982B8A
:1011900092A371E0A435B70739F7A4E5B1E021E0E7
:1011A00030E08D91E82FE295EF70F0E041A18F7073
:1011B000B90102C0660F771F8A95E2F7CB01962F1F
:1011C0009095492341A392A1982B92A371E0A93550
:1011D000B70739F7E0E9F1E0A6E8B1E01192119222
:1011E0001D921D9281E0EA39F807C1F70C941E06A2
:1011F0002F923F924F925F926F927F928F929F9227
:10120000AF92BF92CF92DF92EF92FF920F931F9314
:10121000CF93DF9307E411E0212C312CEE24E394EB
:10122000F12C55245394E80189918E01E82FE29521
:10123000EF70F0E021A18F70A70102C0440F551F8D
:101240008A95E2F7CA01242B21A322A1742E70945F
:10125000272122A350EA5A95F1F76701022C02C018
:10126000CC0CDD1C0A94E2F746018094909424E5AE
:1012700031E0A6E8B1E0612C5D014D915C911197E0
:10128000E90149909E01642D62956F7070E0EB0159
:1012900068A170E0D42DDF700D2E02C075956795A2
:1012A0000A94E2F760FD04C0BA016C297D2903C0ED
:1012B000BA016821792111967C936E931296E5010B
:1012C000688179814617570711F066246394D1E04D
:1012D00029353D0789F691A1972191A392A1982BD9
:1012E00092A3662041F050929A010E94AD1890930B
:1012F0009C0180939B01EFEF2E1A3E0AFDE02F1612
:10130000310409F090CF80919A018823B1F0809147
:101310009B0190919C010E94B918069770F0E6E835
:10132000F1E0A0E9B1E0819191918D939D9321E04D
:10133000E039F207C1F710929A010E94200681E07D
:10134000DF91CF911F910F91FF90EF90DF90CF90A1
:10135000BF90AF909F908F907F906F905F904F90D5
:101360003F902F900895E82FF0E0EE0FFF1FE05719
:10137000FE4F8081918108950895CF93DF93EC0112
:10138000C13080E8D807C8F0FB0182818823A9F02A
:1013900080919D01811109C08CE090E00E949F2501
:1013A0000E94E10981E080939D010E94E809CE013D
:1013B0009F770E94A60A0E945E0A81E0DF91CF918A
:1013C000089580939E01682F8CE090E00C94AD25E9
:1013D000E0913401F091350180818093490281FFD1
:1013E00003C081EE0E94030E8091490285FF03C075
:1013F00085EE0E94030E8091490280FF03C080EEBB
:101400000E94030E8091490284FF03C084EE0E9473
:10141000030E8091490282FF03C082EE0E94030EF8
:101420008091490286FF03C086EE0E94030E8091E0
:10143000490283FF03C083EE0E94030E809149029C
:1014400087FF03C087EE0E94030E80919E018130CA
:10145000A1F078F0823011F1843049F586EE0E94D7
:10146000300D86EE0E94030E88E10E94300D88E167
:101470001CC082EE0E94300D1AC080EE0E94300D1A
:1014800081EE0E94300D88E10E94300D88E10E94BB
:10149000030E81EE0E94030E80EE07C082EE0E94D2
:1014A000300D87E50E94300D87E50E94030E8FE323
:1014B0009CE90197F1F700C00000089580919E011A
:1014C000813029F010F0823041F482EE04C08CE2C9
:1014D0000E94300D8CE20E94030E8091490281FF30
:1014E00003C081EE0E94300D8091490285FF03C048
:1014F00085EE0E94300D8091490280FF03C080EE8E
:101500000E94300D8091490284FF03C084EE0E9446
:10151000300D8091490282FF03C082EE0E94300D9F
:101520008091490286FF03C086EE0E94300D8091B3
:10153000490283FF03C083EE0E94300D809149026F
:1015400087FF03C087EE0C94300D0895FF920F9330
:101550001F93CF93DF938C01CCE0D0E0C8010C2E19
:1015600002C0969587950A94E2F7282F2F70F22EE5
:10157000822F0E9424060E94300D8F2D0E94240687
:101580000E94030E2497CC3F8FEFD80739F7DF91E5
:10159000CF911F910F91FF900895CF93DF93EC01AE
:1015A0008E85811112C081E08E878F810E946E1717
:1015B0000E94C417EA81FB816F857889CE01069667
:1015C000309719F0DF91CF910994DF91CF91089571
:1015D0000F931F93CF93DF938C01FC0187818111BF
:1015E00021C082819381975521E1289FE001299FA5
:1015F000D00D1124C050DF4FEC81FD816F857889BB
:10160000CE010696309709F009958F810E947417D4
:101610000E94C417F8011082168210861092A00151
:1016200010929F01DF91CF911F910F910895FF922A
:101630000F931F93CF93DF938C0180919F01909123
:10164000A001009771F08017910759F0975521E19B
:10165000289FF001299FF00D1124E050FF4F81E0F9
:101660008487C8019755FB0142818F3F910511F096
:1016700008F04DC020913301332727FD30952817FE
:10168000390714F48093330121E1289FE001299F59
:10169000D00D1124C050DF4F4D87FB01828188237C
:1016A00009F458C0198708878E818F5F8E830E9446
:1016B000AD189B878A870E94AE178F83E881F981D6
:1016C0006F857889CE010696309709F0099580914B
:1016D0009F019091A0010097A9F08017910791F0C8
:1016E000975521E1289FE001299FD00D1124C0507A
:1016F000DF4F81E08C87CE010E94CD0ACE01069695
:101700000E94E80A1093A00100939F0123C0442384
:1017100009F1809133018F3FE9F0C6E0D1E000E0AC
:1017200010E0FF24F39480913301992787FD909571
:10173000801791077CF0CE0106972881222331F093
:10174000FE820E94CD0ACE010E94E80A0F5F1F4F61
:101750006196E9CF81E0DF91CF911F910F91FF90CA
:101760000895EF92FF920F931F93CF93DF93809191
:1017700033018F3F21F1C6E0D1E000E010E080911D
:101780003301992787FD909580179107C4F07E015A
:1017900086E0E81AF1088881882369F08C819D81B0
:1017A0000E94B918893C910530F0C7010E94CD0A0A
:1017B000CE010E94E80A0F5F1F4F6196E0CFDF91D4
:1017C000CF911F910F91FF90EF9008959093A601F4
:1017D0008093A5010895E091A501F091A6013097AD
:1017E00021F00190F081E02D099480E00895E091CE
:1017F000A501F091A601309721F00280F381E02D40
:1018000009940895E091A501F091A601309721F087
:101810000480F581E02D099408952091A301309171
:10182000A4018217930771F09093A4018093A30100
:10183000E091A501F091A601309721F00680F78193
:10184000E02D099408952091A1013091A201821701
:10185000930771F09093A2018093A101E091A501FB
:10186000F091A601309721F00084F185E02D0994D4
:10187000089508950C94390C0E94A4180E94AA0897
:101880000C941A195F926F927F928F929F92AF92EF
:10189000BF92CF92DF92EF92FF920F931F93CF935D
:1018A000DF93CDB7DEB72A970FB6F894DEBF0FBE31
:1018B000CDBF0E94F80898EAC92E91E0D92E00E029
:1018C00010E0AA24A394B12C502E802F0E94B309BB
:1018D0003C01F601E190F1906F01E826F926E11450
:1018E000F104B1F40F5F1F4F0530110569F78FEF59
:1018F00089838A831B820E94AD188160782F9D8323
:101900008C8349815A816B818D810E94FB0C3AC086
:101910008091310281FD0E94BC0920E030E0450148
:10192000022E02C0880C991C0A94E2F7C4018E2191
:101930009F21892B09F12E835F826820792081E025
:10194000672809F480E088870E94AD188160782FAD
:101950009A8789874E815F8168858A850E94FB0C02
:10196000F801EE0FFF1FE855FE4F80819181882519
:1019700099259183808306C02F5F3F4F2D3031051D
:1019800071F6B0CF0E94AC1A1091A7010E94EB0B28
:101990001817D9F00E94EB0B8093A7012A960FB677
:1019A000F894DEBF0FBECDBFDF91CF911F910F9195
:1019B000FF90EF90DF90CF90BF90AF909F908F906F
:1019C0007F906F905F900C9434062A960FB6F8942F
:1019D000DEBF0FBECDBFDF91CF911F910F91FF9062
:1019E000EF90DF90CF90BF90AF909F908F907F90BF
:1019F0006F905F900895CF93DF93CDB7DEB72B97AD
:101A00000FB6F894DEBF0FBECDBF4F8358876987EE
:101A10007A878B87DE01119686E0FD0111928A9507
:101A2000E9F785E0FE01379601900D928A95E1F77E
:101A30000E94CE16882319F082E00E940A1749817D
:101A40005A816B817C818D819E810E94B9132B9676
:101A50000FB6F894DEBF0FBECDBFDF91CF910895D2
:101A6000CF93C82F882309F4CCC0823859F40E9440
:101A7000EB0B81FDC6C089E30E942C170E94C4179E
:101A800089E30CC0833879F40E94EB0B80FDB9C068
:101A900083E50E942C170E94C41783E50E944D170E
:101AA000CF910C94C417843859F40E94EB0B82FD3B
:101AB000A8C087E40E942C170E94C41787E4EECFC9
:101AC0008CEF8C0F813A48F48C2F0E94D01C81112E
:101AD00098C08C2F0E942C17E3CF80E28C0F8830A7
:101AE00048F4C77081E001C0880FCA95EAF70E94E8
:101AF0006E17D6CF8BE58C0F833078F4C53A29F07A
:101B0000C63A31F482E890E005C081E890E002C076
:101B100083E890E0CF910C940D0C88E58C0F853113
:101B200008F06FC0C83A61F1C93A69F1CA3A71F177
:101B3000CB3A79F1CC3A81F1CB3B89F1CC3B91F1B5
:101B4000CD3A99F1C03BA1F1CE3AA9F1CF3AB1F12A
:101B5000C13BB9F1C23BC1F1C33BC9F1C43BD1F1B7
:101B6000C53BD9F1C63BE1F1C73BE9F1C83BF1F117
:101B7000C93BF9F1CA3B09F03FC08AE292E03EC09E
:101B800082EE90E03BC089EE90E038C08AEE90E0B3
:101B900035C085EB90E032C086EB90E02FC083EB40
:101BA00090E02CC084EB90E029C087EB90E026C049
:101BB0008CEC90E023C08DEC90E020C083E891E0B5
:101BC0001DC08AE891E01AC082E991E017C084E95B
:101BD00091E014C081E292E011C083E292E00EC075
:101BE00084E292E00BC085E292E008C086E292E0D7
:101BF00005C087E292E002C080E090E0CF910C94B3
:101C0000230CCF910895882309F44BC0823859F4EE
:101C10000E94EB0B81FF45C089E30E942C170E94B4
:101C2000C41789E30CC0833871F40E94EB0B80FF6A
:101C300038C083E50E942C170E94C41783E50E94D8
:101C40004D170C94C417843859F40E94EB0B82FF93
:101C500028C087E40E942C170E94C41787E4EFCFA6
:101C60009CEF980F913A58F390E2980F983050F407
:101C7000877091E001C0990F8A95EAF7892F0E9439
:101C80007417DFCF9BE5980F933020F480E090E04D
:101C90000C940D0C885A853120F480E090E00C946F
:101CA000230C0895882321F00E946E170C94C4170A
:101CB0000895882321F00E9474170C94C417089586
:101CC0008F929F92BF92CF92DF92EF92FF920F93EB
:101CD0001F93CF93DF9300D0CDB7DEB74C01472FD2
:101CE000FC01C580C2949FE0C922D280DD2031F082
:101CF00079836A830E948B176A81498149836A8349
:101D00000E94251749816A81882389F0DD2079F0B6
:101D100080E2860F883058F082E00E940A170E9405
:101D20002517BB24B394B82649816A8101C0B12C20
:101D3000E42EE2948FE0E822F12CF701E859FF4FFE
:101D40000C948525842F807F142F1F70882311F019
:101D50001295107FDD20C1F0112309F4A1C180E2AA
:101D6000860F883010F0611105C0812F6A830E94B0
:101D70006E1704C0812F6A830E947E176A816A836E
:101D80000E94C4176A818CC1862F6A830E94030E49
:101D90006A81112309F4A5C180E2860F883010F012
:101DA000611104C0812F0E94741703C0812F0E940B
:101DB00084170E94C41795C1242F207F842F8F7011
:101DC000203211F08295807F662319F06130B9F0DE
:101DD00022C0DD2049F0CC2009F417C1F1E0CF1278
:101DE00014C10E949E177DC1CC2021F021E0C216B3
:101DF00009F477C189830E94A71789810CC1DD206E
:101E000029F095E09C1508F46CC1FFC0E4E0EC15E6
:101E100008F467C100C1DD2051F0CC2009F4F5C001
:101E2000F401958190FF3CC19F709583EEC0CC205A
:101E300009F4F1C046C1242F26952695237030E081
:101E40002115310521F02130310561F04AC1DD2035
:101E500021F0862F942F937002C080E090E00E94C2
:101E60000D0C4FC1DD2021F0862F942F937002C0FE
:101E700080E090E00E94230C44C1862FDD2019F001
:101E80000E94B41902C00E941C1A0E94A11A39C1F2
:101E9000842F837009F04EC0D1102FC1262F2295B8
:101EA00026952770220F220F862F8F70C82ED12CD7
:101EB000E12CF12C022E04C0CC0CDD1CEE1CFF1C0E
:101EC0000A94D2F764FF10C06FE070E080E090E009
:101ED00004C0660F771F881F991F2A95D2F7609557
:101EE00070958095909503C060E070E0CB01242F41
:101EF00026952695237030E02230310569F0233095
:101F0000310589F06C297D298E299F2921303105E1
:101F100071F00E940815F1C06C297D298E299F2936
:101F20000E941A15EAC00E940815C701B6010E9456
:101F3000F614E3C0DD2019F0842F817001C086956E
:101F4000882309F4DAC0262F229526952770220FC0
:101F5000220F862F8F70C82ED12CE12CF12C022E4F
:101F600004C0CC0CDD1CEE1CFF1C0A94D2F764FFED
:101F700010C06FE070E080E090E004C0660F771F53
:101F8000881F991F2A95D2F7609570958095909536
:101F900003C060E070E0CB01242F269526952370C6
:101FA00030E02230310569F02330310589F06C29A9
:101FB0007D298E299F292130310571F00E94B415A9
:101FC0009CC06C297D298E299F290E94C61595C029
:101FD0000E94B415C701B6010E94A2158EC0062F3B
:101FE00010E0F801E05EF109E531F10508F054C0B8
:101FF000E858FF4F0C948525162F1F70842F8F7182
:10200000DD2031F00E944D15812F0E94520E69C0D3
:102010000E946815812F0E94590E63C0DD2049F08F
:10202000F4E0FC1508F45DC0842F8F710E948715C1
:1020300058C025E02C1508F454C0F6CFDD2039F047
:10204000842F8F710E944D154CC0DD20C9F3842F61
:102050008F710E94681545C0DD2029F0842F8F7193
:102060000E943E153EC00E9439153BC0DD2051F054
:10207000142F1F71812F0E944D1563E0812F0E9444
:10208000FA162FC081E00E940A1781E08C1548F5EE
:1020900082E00E940A1725C0DD2031F0CC2081F2B9
:1020A000862F0E94300D1DC0CC2089F2693349F47F
:1020B0009FEFE7EEF3E09150E040F040E1F700C021
:1020C0000000862F0E94030E0CC04F70C4010E94B6
:1020D00012040E94661415C04F70C4010E94360697
:1020E00010C028E0E216F10441F05CF09AE0E91A31
:1020F000F108E2E0EE16F10420F40E94EB0B0E94DE
:102100003406BB20F1F00E94CA1680FD1AC0F4010B
:1021100012820E94C4160E944D15C4010E94AF1085
:102120000E94C4160F900F90DF91CF911F910F91D5
:10213000FF90EF90DF90CF90BF909F908F900C9486
:1021400068150F900F90DF91CF911F910F91FF9025
:10215000EF90DF90CF90BF909F908F9008950F9356
:102160001F93CF93DF93EC01288139818B819C8170
:10217000892B31F03F3F11F080E003C02F3FE1F7A2
:1021800081E0811113C0CE010E947E04882371F08A
:10219000688179818A810E947E168C010E94D815FF
:1021A0000E94F314B801CE010E94600EDF91CF911E
:1021B0001F910F9108950E948B170E949B170E94F8
:1021C00060170E94C4170E944D1B0E94A11A80E054
:1021D00090E00E940D0C80E090E00C94230C0E9493
:1021E0007B170C94DB100E947316E92FE295EF70B9
:1021F000F0E03297EE30F105B8F4E357FF4F0C945E
:102200008525803F59F018F4803E70F407C0843F64
:1022100059F404C0803E10F0813F31F481E008950C
:1022200093FB882780F9089580E00895CF93DF938A
:1022300000D000D01F92CDB7DEB70F900F900F9057
:102240000F900F90DF91CF910895CF93DF9300D03F
:1022500000D000D0CDB7DEB726960FB6F894DEBF1B
:102260000FBECDBFDF91CF9108951F93CF93DF9322
:10227000C091B30116E08091B401C81799F0D0E085
:102280001C9FF0011D9FF00D1124EB54FE4F408167
:10229000518162817381848195810E9425112196EB
:1022A000C770E9CFDF91CF911F9108954091E5016B
:1022B0005091E6016091E7017091E8018091E90198
:1022C0009091EA010C942511CF938091EA018295B7
:1022D0008F7009F05FC08091E701882309F45AC02C
:1022E0002091B301A091B4016091E5017091E601E4
:1022F0008091E8019091E90131E06F3F09F030E011
:10230000B32FC6E02A1709F445C0009721F07F3F9C
:1023100021F44B2F03C041E001C040E030E040FD1C
:1023200035C0C29FF001C39FF00D1124EB54FE4F46
:10233000418174132BC04081641328C04281411134
:1023400025C0438154814817590710F44150510961
:10235000481B590B483C5105C8F48091EA018F7025
:1023600080618093EA0186E0829FF001839FF00DF7
:102370001124E654FE4F80818F708061808385EE4A
:1023800091E00E94AF10CF910C9435112F5F3F4F19
:102390002770B8CFCF910895CF92DF92EF92FF923E
:1023A0000F931F93CF93DF93CDB7DEB762970FB62E
:1023B000F894DEBF0FBECDBF8C0185E0F801DE01D1
:1023C0001D9601900D928A95E1F7D8014C911196D6
:1023D0005C91119712966C9112971396ED90FC9068
:1023E00014977091E501E091E6012091E8013091A8
:1023F000E9012115310531F0EF3F31F481E07F3FF4
:1024000019F403C081E001C080E0B82FB170CB2E79
:1024100080FD6CC1D090E701DD2009F4F5C0F0919A
:10242000EA01E216F30638F0C701821B930B883CE1
:10243000910548F09BC0209530952E0D3F1D283CFE
:10244000310508F093C08F2F807F09F052C0E5134B
:1024500014C0741312C0D62E61110FC0FF70F0614A
:10246000F093EA010E94561185EE91E00E94AF10B0
:102470008091EA01F80185836CC1EF2831F05F3F5C
:1024800031F481E04F3F19F403C081E001C080E0E6
:1024900080FD03C081E0862701C080E0F82FF17045
:1024A000FF2E80FF1CC08091B3012091B40136E063
:1024B000821709F428C190E0389FF001399FF00D90
:1024C0001124EB54FE4F7181571306C070814713DE
:1024D00003C07281671303C001968770E9CFD62EBF
:1024E000662309F436C18091EA0181608093EA0194
:1024F00053C0E51308C0741306C0611104C0D801AD
:102500001596FC93AEC04D875E878D859E856A8B40
:102510000E94F3106A89882329F1D62E662311F1CF
:102520002091EA01822F82958F7090E002970CF43F
:1025300060C08091E5019091E60198878F831986AC
:10254000FB86EA862C87CE01079651C0E51731F14C
:102550004D875E878D859E856A8B0E94F3106A8900
:1025600081112EC0C8010E94AF10A4C08F2F807FA0
:1025700069F77E2DF98AE88A89890E94161185EE0D
:1025800091E00E94AF10E5EEF1E086E0DF011D92E0
:102590008A95E9F70E945611D12CDBC07413D8CF6D
:1025A0006111D6CFD8011596FC93C8010E94AF10D7
:1025B000E5EEF1E086E0DF011D928A95E9F7C9C0FA
:1025C000D62E662379F22091EA01822F82958F70B0
:1025D00090E0029774F08091E5019091E6019A8372
:1025E00089831B82FD82EC822E83CE0101960E949C
:1025F000AF1086E0F801A5EEB1E001900D928A954A
:10260000E1F70E9464116FC0E216F30628F0C701DB
:10261000821B930B9C0104C0209530952E0D3F1D0D
:10262000283C310508F052C0D62E662309F49ACF13
:10263000E5132CC074132AC08091EA0180FD1DC0EF
:10264000982F92959F70C9F0D80115968C93159785
:102650009F3039F09F5F9295907F8F70892B1596F0
:102660008C93C8010E94AF1086E0F801A5EEB1E09E
:1026700001900D928A95E1F736C086E0F801A5EE4B
:10268000B1E001900D928A95E1F763C04D875E87B6
:102690008D859E850E94F310882379F086E0F801ED
:1026A000A5EEB1E001900D928A95E1F70E946411C8
:1026B0000E945611DD24D3944CC08091EA018160C0
:1026C0008093EA01C8010E94AF1043C07E2DF98AB1
:1026D000E88A89890E941611E5EEF1E086E0DF01C3
:1026E0001D928A95E9F70E94561133C0662309F4BA
:1026F00039CF4D875E878D859E850E94F310882394
:1027000009F430CFCBCF4D875E878D859E850E94A3
:102710007316292F22952F7030E0223031052CF4CA
:102720009F7041F0811106C00CC0243031052CF49B
:102730009F7049F4805E883020F0C8010E94AF107D
:10274000CF2CDC2C06C0D80115969C91907F91F778
:10275000F8CF8D2D62960FB6F894DEBF0FBECDBFB9
:10276000DF91CF911F910F91FF90EF90DF90CF906D
:1027700008951F93CF93DF93CDB7DEB72C970FB695
:10278000F894DEBF0FBECDBF4F83588769877A8725
:102790008B879C87CE0107960E94CC118823C1F0BD
:1027A0002F8138858A859B85892B31F03F3F11F039
:1027B00080E003C02F3FE1F781E0811147C04F81E6
:1027C000588569857A858B859C850E9425113EC038
:1027D00086E0FE013796DE01119601900D928A95F2
:1027E000E1F7FF81E8854A855B854115510531F0A8
:1027F000EF3F31F481E0FF3F19F403C081E001C0F5
:1028000080E080FD23C02091B40130E0C901019631
:10281000877099276091B30170E086179707F1F1EF
:10282000F983EA835D834C8396E0929FD001939F66
:10283000B00D1124AB54BE4FFE01319601900D92A4
:102840009A95E1F78093B4010E94351116E08091CA
:10285000B3019091B401891779F1189FC001112437
:102860008B549E4F0E94CC11882331F1E091B3012B
:102870001E9FF0011124EB54FE4F40815181628173
:102880007381848195810E9425118091B30190E02C
:102890000196877099278093B301D9CF0E94EF10DA
:1028A0001092B4011092B301E5EEF1E086E0DF0191
:1028B0001D928A95E9F7CACF2C960FB6F894DEBF21
:1028C0000FBECDBFDF91CF911F910895EF92FF9280
:1028D0000F931F93CF93DF93FC01009709F46FC010
:1028E000F12CEE24E394EF0121968491843740F497
:1028F000843008F055C0813081F0823021F15FC012
:10290000853709F447C0C0F19CE7980F903708F06D
:1029100056C08F770E94030E45C08F010E5F1F4F78
:10292000FE01849190E2980F983050F48770FE2D4C
:1029300001C0FF0F8A95EAF78F2F0E948E1715C0EE
:102940000E94300D14C08F010E5F1F4FFE01849155
:1029500090E2980F983068F48770FE2D01C0FF0F49
:102960008A95EAF78F2F0E9494170E94C417E801F6
:1029700019C00E94030EFBCFCF010296FE01C49145
:10298000CC2361F0EFE9FFE03197F1F700C00000E0
:10299000C150F6CFCF010296FE01F490EC0102C0C7
:1029A0000E94300D8F2D882341F0EFE9FFE0319731
:1029B000F1F700C000008150F6CFFE0194CFDF9107
:1029C000CF911F910F91FF90EF90089508950E946D
:1029D000E61460931C0270931D0280931E02909374
:1029E0001F020C94DB1008950C94E7140F931F93AF
:1029F00000911C0210911D0220911E0230911F02B5
:102A0000602B712B822B932B1F910F910C94E71449
:102A10000F931F9300911C0210911D0220911E0222
:102A200030911F0260237123822393231F910F9102
:102A30000C94E7140F931F9300911C0210911D0238
:102A400020911E0230911F02602771278227932751
:102A50001F910F910C94E71408950E942C15609318
:102A600018027093190280931A0290931B020C941F
:102A7000DB1060E070E0CB010C942D1541E050E0DC
:102A800060E070E004C0440F551F661F771F8A95F1
:102A9000D2F7CB01BA010C942D1541E050E060E073
:102AA00070E004C0440F551F661F771F8A95D2F748
:102AB0008091180290911902A0911A02B0911B0204
:102AC000482B592B6A2B7B2BCB01BA010C942D156B
:102AD00041E050E060E070E004C0440F551F661F05
:102AE000771F8A95D2F740955095609570958091A3
:102AF000180290911902A0911A02B0911B0248236A
:102B000059236A237B23CB01BA010C942D1541E094
:102B100050E060E070E004C0440F551F661F771F4F
:102B20008A95D2F78091180290911902A0911A0209
:102B3000B0911B02482759276A277B27CB01BA018E
:102B40000C942D150F931F930091180210911902E8
:102B500020911A0230911B02602B712B822B932B38
:102B60001F910F910C942D150F931F930091180234
:102B70001091190220911A0230911B0260237123D7
:102B8000822393231F910F910C942D150F931F9364
:102B9000009118021091190220911A0230911B0223
:102BA00060277127822793271F910F910C942D1571
:102BB00008952DE0929F800D1124482F469546954B
:102BC00046958770B1E001C0BB0F8A95EAF785E0B2
:102BD000489FA001112445515E4F80E090E070E0D5
:102BE000FA01E80FF91FA0819B01082E02C036955B
:102BF00027950A94E2F72170332721952A272B2362
:102C00002A27208301968530910551F708952DE0FC
:102C1000929F800D1124682F669566956695982F72
:102C2000977085E0689FB001112465517E4F40E0A8
:102C300050E080E0FB01E40FF51F208130E0092E19
:102C400002C0369527950A94E2F721703327042EA7
:102C500001C0220F0A94EAF7822B4F5F5F4F453085
:102C6000510541F70895CF92DF92EF92FF920F93B3
:102C70001F93CF93DF93EC01C0901C02D0901D02F4
:102C8000E0901E02F0901F028091180290911902AC
:102C9000A0911A02B0911B02C82AD92AEA2AFB2A5B
:102CA0000FE110E0B701A601002E04C076956795EC
:102CB000579547950A94D2F740FD05C00150110978
:102CC00088F780E007C0BE01802F0E94510601975F
:102CD000A9F3802FDF91CF911F910F91FF90EF907B
:102CE000DF90CF900895CF93DF93EC010E943316CD
:102CF000BE010E945106DF91CF9108951F93CF939B
:102D0000DF93EB019091B201992321F0CB010E9456
:102D1000731613C0882349F0CB010E943316182F75
:102D2000682FCE010E94D91504C0CB010E9407165E
:102D3000182FBE01812F0E945106DF91CF911F9164
:102D400008950E94AD182091230230912402821729
:102D5000930750F00E94AD18209123023091240275
:102D6000821B930B9C010AC00E94AD182091230284
:102D70003091240220953095280F391F81E0283B9F
:102D80003B4008F480E00895809122028595859566
:102D90008595089580912202877008950E94AD184C
:102DA00020912002309121028217930768F00E943F
:102DB000AD182091200230912102821B930B883B99
:102DC0009B4078F480E014C00E94AD18209120024E
:102DD0003091210220953095280F391F283B3B4028
:102DE00088F38091220282FB882780F991E089276D
:102DF0008170089598E0899F90011124622B60935F
:102E000022020E944D150E94AD18909321028093DA
:102E1000200208954091220280958423809322020B
:102E2000982F977089F450E0282F332727FD30958D
:102E30004217530749F08595859585950E94681539
:102E40001092210210922002089590912202977010
:102E500081E009F480E008954091340150913501FA
:102E600020E030E09FEFFA01E20FF31F6281681764
:102E700099F09F3F19F4611101C0922F2F5F3F4FCE
:102E80002630310581F79F3F39F0FA01E90FF11D36
:102E900097FDFA95828308950895409134015091E9
:102EA000350120E030E0FA01E20FF31F9281981320
:102EB00001C012822F5F3F4F26303105A1F70895E0
:102EC00081E090E0E0913401F0913501E80FF91FC5
:102ED0001082019688309105A9F7089590913002EB
:102EE000982B90933002089580959091300298230A
:102EF00090933002089510923002089590912F021D
:102F0000982B90932F020895809590912F029823EB
:102F100090932F02089510922F02089590912E02FF
:102F2000982B90932E020895809590912E029823CD
:102F300090932E02089510922E02089580932502F8
:102F40000E94AD189093240280932302089510925A
:102F500025021092240210922302089580912502E6
:102F60000895409134015091350120E030E080E037
:102F7000FA01E20FF31F918191118F5F2F5F3F4F95
:102F800027303105A9F70895E0913401F09135011A
:102F9000809130028083E0913401F091350180818D
:102FA00090912F02892B8083E0913401F0913501BB
:102FB000808190912E02892B808380912502882325
:102FC00099F00E94A11681110E94A717E091340187
:102FD000F0913501808190912502892B80830E9498
:102FE000B11781110E94A71780913401909135018A
:102FF0000C94F70B6DEE7EEF80E090E00E94BF2511
:1030000060E082E090E00E94AD2560E083E090E027
:103010000E94AD2560E084E090E00E94AD2560E074
:1030200085E090E00C94AD2580E090E00E94A7251B
:1030300021E08D3E9E4F09F020E0822F089582E02E
:1030400090E00C949F2583E090E00C949F25682FDE
:1030500083E090E00C94AD2584E090E00C949F25F3
:10306000682F84E090E00C94AD2580915402843068
:1030700021F11092320220E488E190E00FB6F8943A
:10308000A895809360000FBE2093600080E00E94AE
:10309000340683B7817F846083BF83B7816083BF39
:1030A0007894889583B78E7F83BF88E10FB6F894B4
:1030B00080936000109260000FBE089508950895F7
:1030C000CF930E945E180E94F8080E945F18C0E02B
:1030D0008C2F0E94B309892B29F4CF5FC530C1F72B
:1030E00080E001C081E0CF9108950E94EF100E941E
:1030F000EB0B0C9434061F920F920FB60F92112413
:103100008F939F93AF93BF9380913202811113C02D
:1031100080914A0290914B02A0914C02B0914D02D5
:103120004196A11DB11D80934A0290934B02A0933A
:103130004C02B0934D02BF91AF919F918F910F9030
:103140000FBE0F901F90189582E084BD93E095BD4F
:103150009AEF97BD80936E0008952FB7F8948091F1
:103160004A0290914B02A0914C02B0914D022FBFA8
:103170000895CF92DF92EF92FF920F931F932FB794
:10318000F89440914A0250914B0260914C02709128
:103190004D022FBF6A017B01EE24FF248C0120E049
:1031A00030E0C016D106E206F30610F44150510992
:1031B000481B590BCA011F910F91FF90EF90DF90B0
:1031C000CF90089578941F920F920FB60F9211240A
:1031D0008F939F93AF93BF9380914A0290914B023C
:1031E000A0914C02B0914D020196A11DB11D80939A
:1031F0004A0290934B02A0934C02B0934D02BF91B0
:10320000AF919F918F910F900FBE0F901F901895C7
:1032100087E797E790930108809300082AE088E108
:1032200090E00FB6F894A895809360000FBE2093AD
:103230006000FFCF0E941418811102C00E94FA178B
:103240000E941F18809331020E942C1890E09093E6
:103250004F0280934E020E942318682F70E080E096
:1032600090E00C94F4148091350280FF0BC06091C3
:10327000390185E0689FB0011124759567957595B2
:1032800067952AC081FF09C06091390185E0689F78
:10329000B0011124759567951FC082FF07C060912A
:1032A000390185E0689FB001112416C040913602B3
:1032B0004423C9F060913801461788F720913901FD
:1032C00085E0289F90011124429FC001439F900DEB
:1032D000112470E00E9471256038710540F4611579
:1032E000710539F002C065E070E0862F08958FE720
:1032F000089581E008958091350280FF08C06091B3
:10330000370170E0759567957595679521C081FFC8
:1033100006C06091370170E07595679519C082FF0E
:1033200004C06091370170E010C08091360288239C
:10333000C1F0609136018617A0F790913701989FF0
:10334000C001112470E00E9471256038710528F4D5
:103350006115710521F0862F08958FE7089581E0AA
:10336000089561E070E0F4CF803F21F40E943319AA
:10337000819504C0813F29F40E943319809339025A
:103380000895823F21F40E943319819504C0833F40
:1033900029F40E943319809338020895893F19F463
:1033A0000E947B1905C08A3F31F40E947B198195E8
:1033B00080933A0208958B3F21F40E947B198195F6
:1033C00004C08C3F29F40E947B1980933B0208952E
:1033D000843F21F480913702816017C0853F21F43A
:1033E00080913702826011C0863F21F480913702BC
:1033F00084600BC0873F21F480913702886005C04C
:10340000883F31F4809137028061809337020895BC
:103410008D3F21F48091350281600BC08E3F21F4F5
:1034200080913502826005C08F3F29F4809135027A
:103430008460809335020895803F39F48091390289
:1034400087FF6CC01092390269C0813F29F48091D6
:1034500039021816BCF362C090913802823F29F4F9
:1034600097FF5CC01092380259C0833F19F41916B7
:10347000CCF354C0893F41F480913A0218160CF005
:103480004DC010923A024AC08A3F29F480913A0214
:1034900087FF44C0F6CF8B3F39F480913B0287FF12
:1034A0003DC010923B023AC08C3F29F480913B0210
:1034B0001816BCF333C0843F21F4809137028E7F0D
:1034C00017C0853F21F4809137028D7F11C0863F60
:1034D00021F4809137028B7F0BC0873F21F48091CC
:1034E0003702877F05C0883F31F4809137028F7E95
:1034F0008093370213C08D3F21F4809135028E7F77
:103500000BC08E3F21F4809135028D7F05C08F3F27
:1035100029F4809135028B7F8093350280913802A7
:1035200081110EC08091390281110AC080913A0246
:10353000811106C080913B02811102C010923602B7
:10354000089587E392E00E94020C0E94AD189093C8
:1035500034028093330208951F93CF93DF938091B9
:103560003302909134020E94B918409136024423EC
:1035700021F020913A0130E006C020913B015AE051
:10358000259F900111248217930708F482C080912F
:10359000380210913902D0913A02C0913B02811158
:1035A00007C0111105C0D11103C0CC2309F471C0AB
:1035B0004F3F19F04F5F40933602181624F40E94D3
:1035C0003319809338028091380287FF05C00E942A
:1035D0003319819580933802111624F40E9433190F
:1035E000809339028091390287FF05C00E94331908
:1035F00081958093390260913802662339F11091E8
:103600003902112319F1772767FD7095872F972FBE
:103610000E94822423E333E343E35FE30E94E62432
:103620000E944F2460933802612F772767FD7095C1
:10363000872F972F0E94822423E333E343E35FE342
:103640000E94E6240E944F24609339021D1624F440
:103650000E947B1980933A0280913A0287FF05C04D
:103660000E947B19819580933A021C1624F40E94D3
:103670007B1980933B0280913B0287FF05C00E942B
:103680007B19819580933B02DF91CF911F910C9420
:10369000A11ADF91CF911F910895E7E3F2E085E051
:1036A000DF011D928A95E9F71092360210923502D9
:1036B0000895833081F128F4813059F08230D1F0BF
:1036C0000895853009F449C0B8F1863009F456C030
:1036D000089520913B01862F90E0820F911D8F3F2E
:1036E000910520F4620F60933B0108958FEF809362
:1036F0003B01089520913A01862F90E0820F911DA1
:103700008F3F910520F4620F60933A0108958FEF87
:1037100080933A01089520913901862F90E0820F1D
:10372000911D8F3F910520F4620F60933901089538
:103730008FEF80933901089520913801862F90E012
:10374000820F911D8F3F910520F4620F6093380125
:1037500008958FEF80933801089520913701862FC7
:1037600090E0820F911D8F3F910520F4620F6093CE
:10377000370108958FEF8093370108952091360126
:10378000862F90E0820F911D8F3F910520F4620FEC
:103790006093360108958FEF80933601089583304A
:1037A00011F128F4813049F0823091F0089585308C
:1037B00081F120F18630C1F1089580913B016817B5
:1037C00020F4861B80933B01089510923B010895DD
:1037D00080913A01681720F4861B80933A0108957E
:1037E00010923A01089580913901681720F4861BE0
:1037F000809339010895109239010895809138011C
:10380000681720F4861B80933801089510923801C0
:10381000089580913701681720F4861B8093370143
:10382000089510923701089580913601681720F4A9
:10383000861B8093360108951092360108958732D1
:10384000F8F48E3108F085C08E3009F465C048F474
:10385000873009F447C08B3009F491C0863051F1AC
:1038600027C0863109F48BC020F4803109F45EC092
:103870001FC0893109F483C08B3109F443C018C0DB
:10388000883309F47CC050F4893209F470C0853360
:1038900009F46DC0873209F46AC00AC0833409F4A0
:1038A00066C020F48A3308F052C002C0883461F048
:1038B00080E0089580913102817F8E7F8093310274
:1038C00081E080933D0208950E94EF102FEF83ED79
:1038D00090E3215080409040E1F700C000000E943A
:1038E00008194DC090913102892F8095817080FB1D
:1038F00090F990933102811142C0997F977F909304
:1039000031023DC09091310291FB882780F921E07E
:10391000822780FB91F913C09091310292FB882796
:1039200080F921E0822780FB92F909C09091310251
:1039300093FB882780F921E0822780FB93F99093FD
:1039400031028823E1F0916090933102089527ECD1
:1039500001C023EE280F61E070E080E090E004C039
:10396000660F771F881F991F2A95D2F704C061E060
:1039700070E080E090E00E94F4140E94EF1081E07B
:10398000089580E0089580E008958E518A3030F4E3
:10399000E82FF0E0E75AFE4F8081089580E0089517
:1039A000CF93C82F80913D02813069F018F08230AA
:1039B000B1F180C0E0913401F09135018081823213
:1039C00009F07AC007C0E0913401F091350180819F
:1039D000823249F48C2F0E94C11C81111DC08C2F92
:1039E0000E941F1C1AC08C2F0E94C31C811114C07E
:1039F000C43179F048F4CB3079F0C03109F060C0BF
:103A000082E080933D0208C0C93219F0C83321F02A
:103A100057C010923D0254C081E0817053C0C9323A
:103A200089F118F5C43171F1B0F4C73009F046C01E
:103A30008EE180933B0182E380933A018AE0809398
:103A4000390184E18093380188E08093370188E26E
:103A50008093360133C082EE8C0F863078F58C2F40
:103A60000E94C51C80933C0229C0CE34E9F020F4AA
:103A7000CB3421F56AE013C0C13579F0C235F1F4D9
:103A800061E00DC080913C02882319F010923C0245
:103A900015C081E080933D0215C061E006C08091B1
:103AA0003C020E94591B0AC06AE080913C020E94BD
:103AB000CF1B04C010923D0280E004C081E002C030
:103AC00080E0ABCFCF9108958091460208950F9387
:103AD0001F93CF93DF9300D01F92CDB7DEB78C0139
:103AE0000E94AB1F823011F0843019F583E0898386
:103AF0001B830A838093E9008FEF9091E800815047
:103B000095FD06C095ED9A95F1F700008111F5CF6E
:103B10008091E80085FF0DC040E050E063E070E078
:103B2000CE0101960E94C81F8091E8008E77809395
:103B3000E8000F900F900F90DF91CF911F910F91A0
:103B40000895CF93DF9300D01F92CDB7DEB72091B9
:103B50005402243031F522E02983805891099B8357
:103B60008A8383E08093E9008FEF9091E800815091
:103B700095FD06C095ED9A95F1F700008111F5CFFE
:103B80008091E80085FF0DC040E050E063E070E008
:103B9000CE0101960E94C81F8091E8008E77809325
:103BA000E8000F900F900F90DF91CF910895CF9381
:103BB000DF93EC010E94AB1F823011F08430F9F4E6
:103BC00082E08093E9008FEF9091E800815095FDAD
:103BD00006C095ED9A95F1F700008111F5CF80911F
:103BE000E80085FF0CC040E050E065E070E0CE01E9
:103BF0000E94C81F8091E8008E778093E800DF91D3
:103C0000CF910895CF93DF93EC010E94AB1F8230D8
:103C100011F0843039F581E08093E9008FEF9091C5
:103C2000E800815095FD06C095ED9A95F1F70000EA
:103C30008111F5CF8091E80085FF14C040E050E08D
:103C400068E070E0CE010E94C81F8091E8008E7786
:103C50008093E80088E0FE01AEE3B2E001900D92AF
:103C60008A95E1F7DF91CF910895809153028111F8
:103C700009C00E945A210E94B7218091E20084600D
:103C80008093E200089510925302089508950895D4
:103C90000C94751842E061EC81E00E94D42042E06F
:103CA00061EC82E00E94D42042E061EC83E00C945D
:103CB000D42080915602833009F453C030F481300F
:103CC00071F0823009F48CC008958A3009F478C00C
:103CD0008B3009F45EC0893009F09AC020C0809111
:103CE0005502813A09F094C08091E800877F809363
:103CF000E8008091590290915A02892B21F060E0EE
:103D000080E090E003C068E08EE392E070E00E9403
:103D100011208091E8008B778093E80008958091CE
:103D20005502813209F074C08091590290915A0273
:103D3000892B09F06DC08091E800877F8093E800AF
:103D40008091E80082FD05C0809154028111F8CF76
:103D50005FC08091F100809346028091E8008B77EC
:103D600053C080915502813A09F052C080915902A6
:103D700090915A02892B09F04BC08091E800877F0F
:103D80008093E8008091E80080FFFCCF809146019D
:103D900036C0809155028132D9F5809159029091B7
:103DA0005A02892BA9F58091E800877F8093E8006B
:103DB0000E94092180915702809346010C94EF10D4
:103DC00080915502813221F58091E800877F8093B0
:103DD000E8000E94092180915802809347020895CB
:103DE00080915502813AA1F48091E800877F809309
:103DF000E8008091E80080FFFCCF8091470280932B
:103E0000F1008091E8008E778093E8000C940921FE
:103E1000089584B7877F84BF88E10FB6F8948093B4
:103E20006000109260000FBE80E8809361001092E5
:103E300061000E943A0C0E945A210E94B721809191
:103E4000E20084608093E20078940E9432240E9411
:103E50003C0C8CE391E00E94E60B8091540285308B
:103E600069F40E943518809152028823B1F30E94B0
:103E70006018882391F30E94B21FEFCF0E94420C7A
:103E8000ECCF292F332723303105A9F06CF42130F2
:103E9000310509F442C02230310509F043C084E500
:103EA00090E02AE834E042C021323105C9F02232E4
:103EB000310519F137C099278130910541F08230E1
:103EC000910541F0892B71F5E6E8F4E005C0E6E7DD
:103ED000F4E002C0E2E6F4E0849190E09F0126C0A5
:103EE000633000F5E62FF0E0EE0FFF1FE459FE4FC0
:103EF0002081318189E090E019C0633098F4E62F89
:103F0000F0E0DF01AA0FBB1FAA59BE4F2D913C91D3
:103F1000ED59FE4F808190E009C082E190E02EEDE6
:103F200034E004C080E090E020E030E0FA0131832A
:103F3000208308950895CF93C82F0E949A1FC0939D
:103F40004802CF91089580915402843011F482E0A8
:103F5000089581E0089580914802811102C00C9477
:103F6000A31F089580E189BD82E189BD09B400FEE7
:103F7000FDCF8091D8008F7D8093D8008091E000A4
:103F800082608093E0008091E00081FDFCCF089585
:103F9000CF92DF92EF92FF920F931F93CF93DF9315
:103FA0007C018B01EA010E942A21811131C02097F6
:103FB00031F088819981081B190BE80EF91EC12C7C
:103FC000D12C0115110519F18091E80085FD14C06F
:103FD0008091E8008E778093E800209741F08881F7
:103FE00099818C0D9D1D9983888385E011C00E9465
:103FF0002A21882331F30CC0F70181917F0180933E
:10400000F10001501109FFEFCF1ADF0ADACF80E08B
:10401000DF91CF911F910F91FF90EF90DF90CF90A4
:10402000089520915B0230915C022617370748F013
:104030006115710539F42091E8002E772093E8008E
:1040400001C0B901FC0120E061157105B9F1809151
:104050005402882309F440C0853009F43FC08091A0
:10406000E80083FD3DC08091E80082FF06C080919A
:10407000E80082FF26C080E008958091E80080FF7C
:10408000E3CF2091F3008091F20090E0922B611534
:10409000710551F08830910538F421912093F10099
:1040A000615071090196F3CF21E0089709F020E0F3
:1040B0008091E8008E778093E800C6CF2111C7CFAA
:1040C000D6CF80915402882339F0853039F0809121
:1040D000E80083FFCCCF04C082E0089583E0089518
:1040E00081E0089520915B0230915C02261737072A
:1040F00048F06115710539F42091E8002E7720937E
:10410000E80001C0B901FC0120E061157105C1F1B1
:1041100080915402882309F441C0853009F440C0DD
:104120008091E80083FD3EC08091E80082FF06C0D8
:104130008091E80082FF27C080E008958091E80028
:1041400080FFE3CF2091F3008091F20090E0922B6A
:104150006115710559F08830910540F42491209340
:10416000F1003196615071090196F2CF21E0089774
:1041700009F020E08091E8008E778093E800C5CFB9
:104180002111C6CFD5CF80915402882339F08530D4
:1041900039F08091E80083FFCBCF04C082E008951E
:1041A00083E0089581E00895982F973058F5909313
:1041B000E900981739F07091EC002091ED005091D2
:1041C000F00003C0242F762F50E021FF19C030915A
:1041D000EB003E7F3093EB003091ED003D7F30935C
:1041E000ED003091EB0031603093EB007093EC0008
:1041F0002093ED005093F0002091EE0027FF07C0C0
:104200009F5FD3CF8F708093E90081E0089580E0B5
:1042100008958091550287FD05C08091E80080FFD8
:104220000EC012C08091E80082FD05C0809154024A
:104230008111F8CF08958091E8008B7708C08091B4
:1042400054028111EACF08958091E8008E7780931F
:10425000E80008958091E4009091E50045E6209102
:10426000EC0020FF21C02091E80020FD21C020911A
:104270005402222389F0253089F02091EB0025FD9E
:104280000FC02091E4003091E5002817390739F379
:10429000415041F0C901E3CF82E0089583E00895E1
:1042A00081E0089584E008952091E80022FFDFCFA7
:1042B00080E008950E94C8210E94D021E0EEF0E045
:1042C000808181608083E8EDF0E080818F7780835A
:1042D00019BCA7EDB0E08C918E7F8C9380818F7E8E
:1042E00080831092530208950F931F93CF93DF930F
:1042F0000E94C8210E94D021C8EDD0E088818F772C
:10430000888388818068888388818F7D888319BCB1
:1043100010925402109250021092520210925102C6
:1043200000EE10E0F80180818B7F808388818160BE
:10433000888342E060E080E00E94D420E1EEF0E07B
:1043400080818E7F8083E2EEF0E0808181608083D7
:10435000808188608083F80180818E7F808388815E
:1043600080618883DF91CF911F910F910895E8EDCF
:10437000F0E080818F7E8083E7EDF0E080818160D6
:10438000808384E082BF81E0809353020C94742187
:10439000E8EDF0E080818E7F80831092E200089546
:1043A0001092DA001092E10008951F920F920FB65A
:1043B0000F9211242F933F934F935F936F937F93AB
:1043C0008F939F93AF93BF93EF93FF938091E100FF
:1043D00082FF0BC08091E20082FF07C08091E10064
:1043E0008B7F8093E1000E9431248091DA0080FF6E
:1043F0001FC08091D80080FF1BC08091DA008E7FA3
:104400008093DA008091D90080FF0DC080E189BDE2
:1044100082E189BD09B400FEFDCF81E080935402A2
:104420000E94351E05C019BC109254020E94431E02
:104430008091E10080FF19C08091E20080FF15C0EB
:104440008091E2008E7F8093E2008091E2008061A3
:104450008093E2008091D80080628093D80019BCDC
:1044600085E0809354020E94471E8091E10084FF02
:1044700030C08091E20084FF2CC080E189BD82E1E0
:1044800089BD09B400FEFDCF8091D8008F7D809357
:10449000D8008091E1008F7E8093E1008091E2005E
:1044A0008F7E8093E2008091E20081608093E20041
:1044B00080915002882311F084E007C08091E300CE
:1044C00087FF02C083E001C081E0809354020E9414
:1044D000481E8091E10083FF29C08091E20083FFA4
:1044E00025C08091E100877F8093E10082E0809386
:1044F0005402109250028091E1008E7F8093E1007F
:104500008091E2008E7F8093E2008091E2008061E2
:104510008093E20042E060E080E00E94D42080913D
:10452000F00088608093F0000E94461EFF91EF919A
:10453000BF91AF919F918F917F916F915F914F91BB
:104540003F912F910F900FBE0F901F9018951F92C3
:104550000F920FB60F9211242F933F934F935F93B7
:104560006F937F938F939F93AF93BF93CF93EF936B
:10457000FF93C091E900CF708091EC001092E900A8
:104580008091F000877F8093F00078940E94E3226E
:104590001092E9008091F00088608093F000C09351
:1045A000E900FF91EF91CF91BF91AF919F918F91D2
:1045B0007F916F915F914F913F912F910F900FBE1F
:1045C0000F901F9018951F93CF93DF93CDB7DEB751
:1045D000AA970FB6F894DEBF0FBECDBFE5E5F2E0B7
:1045E0008091F100819322E0ED35F207C9F70E9436
:1045F000591E8091E80083FF1CC120915502309123
:104600005602832F90E08A30910508F012C1FC0118
:10461000E556FF4F0C948525203881F0223809F0AB
:1046200008C1809159028F708093E9008091EB005E
:1046300085FB882780F91092E90006C0809151021D
:1046400090915202911182609091E800977F90932F
:10465000E8008093F1001092F100C5C0822F8D7F99
:1046600009F0E7C0222319F0223061F0E2C0809106
:104670005702813009F0DDC0333009F080E08093CB
:10468000520228C080915702811124C02091590202
:104690002F7009F4CEC02093E9008091EB0080FFD9
:1046A00019C08091EB00333011F4806211C0806139
:1046B0008093EB0081E090E0022E01C0880F0A9405
:1046C000EAF78093EA001092EA008091EB0088609C
:1046D0008093EB001092E9008091E800877F86C00C
:1046E0002111A7C0109157021F778091E3008078B5
:1046F000812B8093E3008091E800877F8093E8001E
:104700000E9409218091E80080FFFCCF8091E300A6
:1047100080688093E300112311F083E001C082E000
:104720008093540286C02058223008F082C08091C5
:104730005702909158028C3D23E0920779F583E06F
:104740008A838AE289834FB7F894DE01139620E0CA
:104750003EE051E2E32FF0E050935700E49120FF58
:1047600003C0E295EF703F5FEF708E2F90E0EA306C
:1047700010F0C79601C0C0968D939D932F5F243192
:1047800049F74FBF8091E800877F8093E8006AE295
:1047900070E0CE0101960E94112014C0AE014F5F5F
:1047A0005F4F609159020E94411F009709F441C078
:1047B0002091E800277F2093E800BC0189819A813D
:1047C0000E9472208091E8008B778093E80031C0CE
:1047D000203879F58091E800877F8093E800809108
:1047E00050028093F1008091E8008E778093E8007A
:1047F0000E9409211EC021111CC0909157029230C5
:10480000C0F48091E800877F8093E8009093500285
:104810000E94092180915002811104C08091E3001F
:1048200087FF02C084E001C081E0809354020E94AF
:104830004A1E8091E80083FF0AC08091E800877FCC
:104840008093E8008091EB0080628093EB00AA9651
:104850000FB6F894DEBF0FBECDBFDF91CF911F9191
:1048600008950895CF93809154028823B1F08091E8
:10487000E9008F709091EC0090FF02C090E801C0B9
:1048800090E0C92FC82B1092E9008091E80083FDC9
:104890000E94E322CF70C093E900CF91089504D025
:1048A0006894B1118DC0089570D088F09F5790F032
:1048B000B92F9927B751A0F0D1F0660F771F881F45
:1048C000991F1AF0BA95C9F712C0B13081F077D0AC
:1048D000B1E0089574C0672F782F8827B85F39F04A
:1048E000B93FCCF3869577956795B395D9F73EF4A4
:1048F00090958095709561957F4F8F4F9F4F08954C
:10490000E89409C097FB3EF4909580957095619569
:104910007F4F8F4F9F4F9923A9F0F92F96E9BB271F
:104920009395F695879577956795B795F111F8CF9B
:10493000FAF4BB0F11F460FF1BC06F5F7F4F8F4F06
:104940009F4F16C0882311F096E911C0772321F0FC
:104950009EE8872F762F05C0662371F096E8862F94
:1049600070E060E02AF09A95660F771F881FDAF7EB
:10497000880F9695879597F9089557FD9058440F9D
:10498000551F59F05F3F71F04795880F97FB991FAE
:1049900061F09F3F79F0879508951216130614066B
:1049A000551FF2CF4695F1DF08C0161617061806F8
:1049B000991FF1CF86957105610508940895E894D3
:1049C000BB2766277727CB0197F908950BD078C0CE
:1049D00069D028F06ED018F0952309F05AC05FC056
:1049E0001124EECFCADFA0F3959FD1F3950F50E0CD
:1049F000551F629FF001729FBB27F00DB11D639F91
:104A0000AA27F00DB11DAA1F649F6627B00DA11D36
:104A1000661F829F2227B00DA11D621F739FB00DDC
:104A2000A11D621F839FA00D611D221F749F33274C
:104A3000A00D611D231F849F600D211D822F762FE5
:104A40006A2F11249F5750408AF0E1F088234AF0E2
:104A5000EE0FFF1FBB1F661F771F881F915050402E
:104A6000A9F79E3F510570F014C0AACF5F3FECF349
:104A7000983EDCF3869577956795B795F795E7951A
:104A80009F5FC1F7FE2B880F911D9695879597F92B
:104A9000089597F99F6780E870E060E008959FEFC0
:104AA00080EC089500240A941616170618060906C5
:104AB000089500240A941216130614060506089594
:104AC000092E0394000C11F4882352F0BB0F40F41C
:104AD000BF2B11F460FF04C06F5F7F4F8F4F9F4F5C
:104AE000089597FB072E16F4009407D077FD09D0A0
:104AF0000E948B2507FC05D03EF4909581959F4F31
:104B00000895709561957F4F0895EE0FFF1F0590F2
:104B1000F491E02D0994AA1BBB1B51E107C0AA1F09
:104B2000BB1FA617B70710F0A61BB70B881F991F4E
:104B30005A95A9F780959095BC01CD010895F999F2
:104B4000FECF92BD81BDF89A992780B50895A8E15E
:104B5000B0E042E050E00C94C725262FF999FECF33
:104B600092BD81BDF89A019700B4021639F01FBAC0
:104B700020BD0FB6F894FA9AF99A0FBE08950196DF
:104B8000272F0E94AE250C94AD25DC01CB01FC0142
:104B9000F999FECF06C0F2BDE1BDF89A319600B496
:0E4BA0000D9241505040B8F70895F894FFCFA1
:104BAE000000B00300000000000000000000000044
:104BBE00000000490300000000000000000000009B
:104BCE000000000081030000000000000000000053
:104BDE00000000FF26022808140A321E641D021E61
:104BEE00D71DA11D671D01F4F5F6F73133323635A9
:104BFE0034C69766929391909401020304050607BA
:104C0E00080900404D3673052605F0049C04B504D2
:024C1E00CE04C2
:00000001FF
